S02100004849442D486F72697A6F6E74616C5363726F6C6C4D6F7573652E737265635F
S113000053C087C06CC06BC06AC069C068C067C099
S113001066C065C064C063C062C061C060C00501E1
S11300200902A1010901A10005091901290315000B
S1130030250195037501810295017505810305016B
S11300400930093109381581257F75089503810622
S1130050C0C009022200010100C00A090400000115
S11300600300000009210101000122340007058179
S1130070030800641201100100000008C016E80320
S11300800001010200010C034D006F0075007300B4
S1130090650012036F0062006400650076002E00A4
S11300A0610074000403090411241FBECFE5D2E0EB
S11300B0DEBFCDBF10E0A0E6B0E0E6E9F7E002C0A5
S11300C005900D92A436B107D9F720E0A4E6B0E07C
S11300D001C01D92A23AB207E1F79ED15AC390CF54
S11300E0A82FB92F80E090E041E050EA609530E01D
S11300F009C02D9182279795879510F0842795271D
S1130100305EC8F36F5FA8F30895EADF8D939D9383
S11301100895CF93CFB7CF93C395B19BE9F7B19B24
S11301200BC0B19B09C0B19B07C0B19B05C0B19B7B
S113013003C0B19B01C0D5C00F92DF93C09185006D
S1130140DD27C457DF4F012EB19B03C0DF910F9011
S1130150E6CF2F930F931F934F932FEF4F6F06B359
S113016001FB20F95F933F9350E03BE065C016B379
S11301700126502951FDC89556B3012701FB25F9E5
S11301802F7306B3B1F05027102711FB26F906B2DE
S11301902230F0F000C016B3012701FB27F9012635
S11301A0502906B22430E8F54F77206816B30000D2
S11301B0F6CF50274F7D206206B2102F000000C0FA
S11301C006B300265029102711FB26F906B2E2CF08
S11301D04F7B06B3206400C0DACF01265029167085
S11301E006B269F14E7F2160012F16B328C00026A4
S11301F050294D7F06B22260102F29C001265029B4
S11302004B7F06B22460012F2DC016B3012650295E
S1130210477F2860000006B22EC04F7E06B32061DF
S113022030C0422706B3499300265029102706B24E
S11302304FEF11FB20F9297F16B379F2167059F1AB
S11302400126502906B2012701FB21F9237F06B3B9
S113025071F2002650293150D0F006B2102711FB5C
S113026022F9277E16B351F201265029012701FBFA
S113027006B223F92F7C49F2000006B3102711FBC4
S113028024F90026502906B22F7939F270CF10E4F0
S11302901ABF002719C03B503195C31BD04010E44E
S11302A01ABF0881033C09F10B34F9F02091830053
S11302B01981110F1213EDCF4A81441F093651F1F0
S11302C00D3211F0013E29F700938A003F915F91AE
S11302D04F911F910F912F91DF910F90CAB7C6FDD7
S11302E01BCFCF91CFBFCF91189520918A002223A5
S11302F069F310918800112379F534307AF1309341
S1130300880020938400109185003BE0311B3093DA
S1130310850024C0009188000130F4F40AE54F7090
S113032049F43091630034FD1AC000936300CCE6B5
S1130330D0E019C03091770034FD11C000937700EC
S1130340C8E7D0E010C0052710E000C021C0052791
S113035010E0C89508BB14C03AE501C032ED032E85
S1130360C0E0D0E032E017B31660C19A08B317BBFF
S113037056E020E84FEF20FF052708BB2795179587
S11303801C3F28F700004552B0F720FF05272795AA
S113039008BB17951C3FB8F629913A9561F7097F78
S11303A010918900110F08BBC250D04011F0109376
S11303B0830010E41ABF026017B3197F402F497FEE
S11303C054E05A95F1F708BB17BB48BB7FCFFC013B
S11303D0908190769032E1F48181813041F487E616
S11303E090E0909387008093860084E008958230A3
S11303F041F484E690E0909387008093860081E046
S113040008958A3039F483818093640080E00895EC
S113041080E0089580E00895BC9AC4989EE088E145
S11304200FB6F894A89581BD0FBE91BDA5D1B99A18
S11304308FEFA895ECE1F0E13197F1F700C00000EF
S11304408150B9F7B9987894C7E7D0E00F2EF0EE51
S1130450EF2EF02DFF24FA9407E610E0A89565D05E
S1130460888184FFFBCF6091650070916600161649
S113047017061CF04E2D5F2D02C040E250E0460FDF
S1130480571F042E452F000C441F550B000C441F0E
S1130490551FF80141838091600090916100840FA1
S11304A0911D9093610080936000181619061CF04A
S11304B02E2D3F2D02C020E230E0820F931F082E24
S11304C0892F000C881F990B000C881F991FF801B5
S11304D08283681B7109709366006093650064E011
S11304E0C80101D0BBCFCF93C62F2091770024FF42
S11304F007C0E7E7F0E0318128E82327218303C020
S11305002AE520937700E82FF92FA9E7B0E08C2F94
S113051091919D938150E1F76C2F89E790E0F5DD8F
S1130520CC5FC0937700CF910895CF93DF938091F0
S1130530880083500AF4BAC0909184009D3209F077
S1130540B3C0883009F0B0C080918500CCE0D0E021
S1130550C81BD109C457DF4F83EC80936C008AE534
S11305608093630010926B008881982F907619F025
S1130570CE012DDF90C02A811092750099819111CE
S11305800BC08F7119F481E080937500109276008E
S113059025E730E082E07BC0953031F42093890078
S11305A025E730E080E073C0963009F050C08B81BD
S11305B0813041F484E790E0909387008093860033
S11305C082E141C0823041F482E590E0909387005B
S11305D08093860082E237C08330F1F4211108C091
S11305E084EA90E0909387008093860084E02BC097
S11305F0213041F482E990E0909387008093860053
S113060082E121C02230E1F486E890E090938700F3
S1130610809386008CE017C0813241F484E690E038
S1130620909387008093860089E00DC0823251F454
S11306308EE190E0909387008093860084E303C06A
S113064080E001C080E090E490936B0024C0983077
S113065099F0993031F420938B0025E730E080E065
S113066016C09A3069F09B3079F48BE4809378005B
S113067025E730E080E00BC02BE830E081E007C0E4
S113068025E730E081E003C025E730E080E03093E7
S11306908700209386009F81911104C09E81981742
S11306A008F4892F8093620010928800809163007F
S11306B084FF4BC0809162008F3F09F446C0C82F6D
S11306C0893008F0C8E08C1B80936200ECE6F0E00F
S11306D0908188E889278083CC2309F444C0209141
S11306E086003091870080916B0086FF10C0ADE6D4
S11306F0B0E0F9018C2F94919D9331968150D9F7F4
S11307002F5F3F4F8FEF8C0F280F311D0EC0ADE6CA
S1130710B0E0F9018C2F91919D938150E1F72F5F07
S11307203F4F8FEF8C0F280F311D3093870020939C
S113073086006C2F8DE690E0E8DCCC5FCC3018F4BA
S11307408FEF80936200C093630086B3867089F450
S113075093E186B3867069F49150D9F710928900B9
S11307601092830006C06C2F8DE690E0CEDCCC5F47
S1130770E7CFDF91CF91089585B7826085BF8BB7AE
S113078080648BBFE7E7F0E08BE481838AE58083B4
S10907900895F894FFCF68
S1070796C001FF5A41
S9030000FC
